:020000040800F2
:1000000000000220653B0008710D0008770D000814
:100010007D0D0008830D0008890D00080000000018
:100020000000000000000000000000008F0D00082C
:100030009D0D000800000000AB0D0008B90D000880
:10004000B53B0008B53B0008B53B0008B53B0008D0
:10005000B53B0008B53B0008B53B0008B53B0008C0
:10006000B53B0008B53B0008B53B0008B53B0008B0
:10007000B53B0008B53B0008B53B0008B53B0008A0
:10008000B53B0008B53B0008B53B0008B53B000890
:10009000B53B0008B53B0008B53B0008B53B000880
:1000A000B53B0008B53B0008B53B0008B53B000870
:1000B000B53B0008B53B0008B53B0008B53B000860
:1000C000B53B0008B53B0008B53B0008B53B000850
:1000D000B53B0008B53B0008B53B0008B53B000840
:1000E000B53B0008B53B000800000000B53B000828
:1000F000B53B0008B53B0008B53B0008B53B000820
:10010000B53B0008B53B0008B53B0008B53B00080F
:10011000B53B0008B53B0008B53B0008B53B0008FF
:10012000B53B0008B53B0008B53B0008B53B0008EF
:10013000B53B0008B53B0008B53B0008B53B0008DF
:1001400000000000000000000000000000000000AF
:10015000B53B0008B53B0008B53B0008B53B0008BF
:10016000B53B0008B53B0008B53B0008B53B0008AF
:10017000B53B0008B53B0008B53B00080000000097
:10018000B53B0008B53B0008B53B0008B53B00088F
:10019000B53B0008B53B0008B53B0008B53B00087F
:1001A000B53B0008B53B0008B53B0008B53B00086F
:1001B000B53B0008B53B0008B53B0008B53B00085F
:1001C000B53B0008B53B0008B53B0008B53B00084F
:1001D000B53B0008B53B0008B53B0008B53B00083F
:1001E000B53B0008B53B0008B53B0008B53B00082F
:1001F000B53B0008B53B0008B53B0008B53B00081F
:10020000B53B0008B53B0008B53B0008B53B00080E
:10021000B53B0008B53B0008B53B0008B53B0008FE
:10022000B53B0008B53B0008B53B000800000000E6
:10023000B53B0008B53B000800000000B53B0008D6
:10024000B53B0008B53B0008B53B0008B53B0008CE
:10025000B53B0008B53B0008B53B0008B53B0008BE
:10026000B53B0008B53B0008B53B0008B53B0008AE
:10027000B53B0008B53B0008B53B00080000000096
:10028000B53B0008B53B0008B53B00080000000086
:0802900000000000B53B00086E
:1002980010B5054C237833B9044B13B10448AFF3B8
:1002A80000800123237010BD100000200000000012
:1002B800103C000808B5034B1BB103490348AFF3D2
:1002C800008008BD0000000014000020103C000859
:1002D80080B584B000AF78600023FB60324B012208
:1002E8001A60314B10225A602F4B01229A602E4B14
:1002F8000022DA604FF6FF722B49786803F066F93E
:1003080003461A46294B1A70012000F075FE264B49
:1003180002221A60244B10225A60234B01229A6051
:10032800214B0022DA604FF6FF721F49786803F00C
:100338004DF903461A461D4B1A701B4B03221A60CF
:10034800194B10225A60184B08229A60164B00224B
:10035800DA604FF6FF721449786803F037F90346FC
:100368001A46124B1A704FF40873FB600E4B0422A6
:100378001A600D4B10225A600B4B01229A60FB68E1
:10038800094AD3604FF6FF720749786803F01EF9EF
:1003980003461A46054B1A70F021786803F04BF9AA
:1003A80000BF1037BD4680BD40000020500000202F
:1003B80080B58EB000AF07F11C0300221A605A60A6
:1003C8009A60DA601A615A619A613B4600221A60A3
:1003D8005A609A60DA601A615A619A61474B484AD2
:1003E8001A60464B474A5A60444B00229A60434B76
:1003F8000222DA60414B04221A61404B10225A61F2
:100408003E4B00229A613D4B0022DA613B4B0022B1
:100418001A623A4B4FF480525A62384B00229A6261
:10042800364B0022DA62354B00221A63334B002226
:100438005A63324B00229A63304B4FF40012DA634E
:100448002E4B00221A640F23FB6106233B620F2305
:100458007B620623BB621023FB6211233B630023EC
:100468007B6307F11C0300221946244803F00CF9AA
:100478000346002B01D000F059FC234B234A1A6095
:10048800214B00225A60204B02229A601E4B082200
:10049800DA601D4B10221A611B4B40225A611A4B1D
:1004A8004FF480729A61184B0022DA61164B4FF4B0
:1004B80040621A62144B4FF480525A62124B002267
:1004C8009A6202233B6006237B600423BB600623F9
:1004D800FB6002233B6102237B610223BB613B4635
:1004E8001946094803F036F80346002B01D000F0FE
:1004F8001DFC00BF3837BD4680BD00BF540000203A
:100508000040005204410052A00000204041005227
:1005180080B5B6B000AF07F1C40300221A605A6074
:100528009A60DA601A616F4B1B68002B40F0D58027
:100538006C4B01221A6007F10803BC2200211846FF
:1005480003F05AFB4FF08073BB600023FB6407F194
:100558000803184601F09CFF0346002B01D000F069
:10056800E5FB614A604BD3F8D43043F48053C2F8BA
:10057800D4305D4BD3F8D43003F480537B607B6870
:100588004FF63F03C7F8C4300223C7F8C83000232A
:10059800C7F8CC300323C7F8D0300C23C7F8D430C1
:1005A80007F1C4031946514800F036FE8023C7F806
:1005B800C4300223C7F8C8300023C7F8CC3003235F
:1005C800C7F8D0300C23C7F8D43007F1C403194654
:1005D800474800F021FE3023C7F8C4300223C7F88B
:1005E800C8300023C7F8CC300323C7F8D0300C2319
:1005F800C7F8D43007F1C40319463E4800F00CFE92
:1006080048F23713C7F8C4300223C7F8C8300023AC
:10061800C7F8CC300323C7F8D0300C23C7F8D43040
:1006280007F1C4031946344800F0F6FD4FF683730A
:10063800C7F8C4300223C7F8C8300023C7F8CC3045
:100648000323C7F8D0300C23C7F8D43007F1C4030C
:1006580019462A4800F0E0FD4CF23373C7F8C4305D
:100668000223C7F8C8300023C7F8CC300323C7F8E3
:10067800D0300C23C7F8D43007F1C40319462048FA
:1006880000F0CAFD8023C7F8C4300223C7F8C83079
:100698000023C7F8CC300323C7F8D0300923C7F8A4
:1006A800D43007F1C4031946124800F0B5FD802381
:1006B800C7F8C4300223C7F8C8300023C7F8CC30C5
:1006C8000323C7F8D0300C23C7F8D43007F1C4038C
:1006D80019460C4800F0A0FD00E000BFD837BD4621
:1006E80080BD00BF2C0000200044025800140258AE
:1006F800000002580008025800180258001002585A
:10070800000C02580004025880B582B000AF78602F
:10071800FFF7FEFE00BF0837BD4680BD80B582B03A
:1007280000AF7860FFF7F4FE00BF0837BD4680BD14
:1007380080B58EB000AF07F1240300221A605A601A
:100748009A60DA601A61AD4AAC4BD3F8E03043F0F6
:100758001003C2F8E030A94BD3F8E03003F01003DF
:100768003B623B6AA54AA54BD3F8E03043F004034B
:10077800C2F8E030A14BD3F8E03003F00403FB618A
:10078800FB699E4A9D4BD3F8E03043F02003C2F842
:10079800E0309A4BD3F8E03003F02003BB61BB692B
:1007A800964A964BD3F8E03043F08003C2F8E03025
:1007B800924BD3F8E03003F080037B617B698F4A6A
:1007C8008E4BD3F8E03043F00103C2F8E0308B4B96
:1007D800D3F8E03003F001033B613B69874A874B5C
:1007E800D3F8E03043F00203C2F8E030834BD3F88B
:1007F800E03003F00203FB60FB68804A7F4BD3F8CC
:10080800E03043F04003C2F8E0307C4BD3F8E030EE
:1008180003F04003BB60BB68784A784BD3F8E030FC
:1008280043F00803C2F8E030744BD3F8E03003F02B
:1008380008037B607B68002243F60271704800F071
:100848009BFE7C237B620023BB620023FB6207F1D3
:10085800240319466B4800F0DFFC43F602737B6201
:100868000123BB620023FB6200233B6307F12403DF
:100878001946634800F0D0FC4FF460737B62032391
:10088800BB620023FB6207F1240319465E4800F0AF
:10089800C3FC0D237B620223BB620023FB6202239D
:1008A8003B630A237B6307F124031946544800F08D
:1008B800B3FC06237B620223BB620023FB62002396
:1008C8003B6307237B6307F1240319464F4800F075
:1008D800A3FC28237B620223BB620023FB62022362
:1008E8003B630A237B6307F124031946474800F05A
:1008F80093FC10237B620223BB620023FB6200236C
:100908003B630C237B6307F1240319463F4800F03F
:1009180083FC43F623437B620223BB620023FB6212
:1009280002233B630A237B6307F1240319463848F3
:1009380000F072FC4FF440437B620223BB62002349
:10094800FB6200233B6304237B6307F124031946FE
:100958002F4800F061FCC8237B620023BB620023A0
:10096800FB6207F1240319462A4800F055FC40238E
:100978007B620223BB620023FB6200233B630723E5
:100988007B6307F1240319461D4800F045FC4FF42A
:10099800C8537B620223BB620023FB6200233B63D4
:1009A8000A237B6307F124031946184800F034FC36
:1009B80040237B620223BB620023FB6200233B636C
:1009C80007237B6307F124031946134800F024FC2E
:1009D8004FF490537B620223BB620023FB62002327
:1009E8003B6307237B6307F124031946094800F09A
:1009F80013FC00BF3837BD4680BD00BF0044025815
:100A0800000802580010025800140258000002584A
:100A18000004025800180258000C025880B582B031
:100A280000AF0346FB71FB791A464FF48071034807
:100A380000F0A2FD00BF0837BD4680BD000802587F
:100A480080B582B000AF0346FB71FB791A464FF4BC
:100A58000071034800F090FD00BF0837BD4680BD17
:100A68000008025880B500AF00F0BAFA0246134BEE
:100A78001A60124B1A68124B1B68D31AF92B1AD931
:100A8800104B1B7803F00103DBB21846FFF7C6FFD3
:100A98000C4B1B7803F00203DBB21846FFF7D0FFBC
:100AA800084B1B780133DAB2064B1A70044B1B68EB
:100AB800FA33034A136000BF80BD00BF380000202E
:100AC800340000203000002080B487B000AFF86008
:100AD800B9601346FB8000237B6108E07B695B00FB
:100AE800FA681344FA881A807B6901337B617A6952
:100AF800BB689A42F2D300BF1C37BD465DF8047B41
:100B0800704700000000000080B584B000AF0023EB
:100B18003B6002E03B6801333B603B6807EE903A7C
:100B2800B8EEE77B9FED3E6BB4EEC67BF1EE10FAB4
:100B3800F0D43D4B5B6903F40033002B15D1BFF3B0
:100B48004F8FBFF36F8F384B0022C3F85022BFF38B
:100B58004F8FBFF36F8F344A334B5B6943F40033D5
:100B68005361BFF34F8FBFF36F8F00F0B3F900F0FD
:100B780063F8FFF7DDFDFFF71BFC2C48FFF7A8FB28
:100B880000224FF480712A48FFF79EFF0023FB6084
:100B980013E0FB685B0003F140431946FB68DB4345
:100BA8001B021AB2FB681BB2DBB21BB213431BB2A7
:100BB8009BB20B80FB680133FB60FB68FF2BE8D915
:100BC8000023BB600CE0BB685B0003F140431B885B
:100BD80099B2174ABB6822F81310BB680133BB608F
:100BE800BB68FF2BEFD900237B6010E07B685B00BC
:100BF80003F140431A460F4B1B8813800D4B1B888B
:100C0800DB439AB20B4B1A807B6801337B607B68AD
:100C1800FF2BEBD9FFF726FFE5E700BFAFF3008016
:100C28000000000080842E4100ED00E0A0000020BC
:100C3800D40200203C00002080B59CB000AF07F132
:100C480024034C220021184602F0D6FF3B1D202227
:100C58000021184602F0D0FF022000F0A7FC002374
:100C68003B60304A2F4BDB6A23F00103D3622D4BE4
:100C7800DB6A03F001033B602B4A2B4B9B6943F46F
:100C880040439361284B9B6903F440433B603B68B6
:100C980000BF254B9B6903F40053B3F5005FF8D1FF
:100CA80001237B624FF4A023BB620223BB640223AF
:100CB800FB6403233B6564237B650223BB65082330
:100CC800FB6508233B660C237B660023BB66002379
:100CD800FB6607F12403184600F0A2FC0346002B2C
:100CE80001D000F023F83F237B600323BB6000237F
:100CF800FB6009233B6100237B610023BB61002368
:100D0800FB6100233B623B1D0121184601F098F866
:100D18000346002B01D000F009F800BF7037BD462C
:100D280080BD00BF000400580048025880B400AFDE
:100D380072B6FEE780B483B000AF0A4A094BD3F815
:100D4800F43043F00203C2F8F430064BD3F8F43021
:100D580003F002037B607B6800BF0C37BD465DF87B
:100D6800047B70470044025880B400AFFEE780B4AB
:100D780000AFFEE780B400AFFEE780B400AFFEE747
:100D880080B400AFFEE780B400AF00BFBD465DF899
:100D9800047B704780B400AF00BFBD465DF8047B9C
:100DA800704780B400AF00BFBD465DF8047B704754
:100DB80080B500AF00F000F900BF80BD80B400AF7F
:100DC800394A394BD3F8883043F47003C2F8883075
:100DD800364B1B6803F00F03062B07D8334A334BF7
:100DE8001B6823F00F0343F007031360304A304BAE
:100DF8001B6843F0010313602D4B00221A612C4934
:100E08002B4B1A682B4B13400B60284B1B6803F0C5
:100E18000F03072B07D9254A244B1B6823F00F0320
:100E280043F007031360224B00229A61204B0022F3
:100E3800DA611F4B00221A621D4B1F4A9A621C4B33
:100E48001E4ADA621A4B1E4A1A63194B00225A6369
:100E5800174B1B4A9A63164B0022DA63144B184A45
:100E68001A64134B00225A64114A114B1B6823F46D
:100E7800802313600E4B00221A66124B1A68124B1D
:100E88001340B3F1005F02D2104B01221A60104BDD
:100E980043F2D2021A60044B4FF000629A6000BF1E
:100EA800BD465DF8047B704700ED00E0002000526D
:100EB800004402587FEDF6EA000202020000FF013A
:100EC800800201010010005C0000FFFF0881005152
:100ED8000040005280B582B000AF032000F06AF9EC
:100EE80001F064F90146154B9B691B0A03F00F03D7
:100EF800134AD35C03F01F0321FA03F37B600F4B03
:100F08009B6903F00F030E4AD35C03F01F037A6852
:100F180022FA03F30B4A13600B4A7B681360002024
:100F280000F014F80346002B01D0012302E0FFF77C
:100F380001FF002318460837BD4680BD004402580B
:100F4800283C0008040000200000002080B582B082
:100F580000AF7860154B1B78002B01D1012321E0ED
:100F6800134B1A68114B1B7819464FF47A73B3FB6D
:100F7800F1F3B2FBF3F3184600F041F90346002BF6
:100F880001D001230EE07B680F2B0AD80022796874
:100F98004FF0FF3000F019F9064A7B681360002310
:100FA80000E0012318460837BD4680BD0C0000202C
:100FB800000000200800002080B400AF064B1B781A
:100FC8001A46064B1B681344044A136000BFBD460B
:100FD8005DF8047B704700BF0C000020D40400209B
:100FE80080B400AF034B1B681846BD465DF8047B10
:100FF800704700BFD404002080B584B000AF78608B
:10100800FFF7EEFFB8607B68FB60FB68B3F1FF3F5A
:1010180005D0094B1B781A46FB681344FB6000BFD8
:10102800FFF7DEFF0246BB68D21AFB689A42F7D385
:1010380000BF1037BD4680BD0C00002080B400AF53
:10104800034B1B681B0C1846BD465DF8047B7047B4
:101058000010005C80B485B000AF78607B6803F056
:101068000703FB600B4BDB68BB60BA684FF6FF03F6
:101078001340BB60FB681A02BB681A43064B134354
:10108800BB60044ABB68D36000BF1437BD465DF837
:10109800047B704700ED00E00000FA0580B400AF63
:1010A800044BDB681B0A03F007031846BD465DF8CE
:1010B800047B704700ED00E080B483B000AF0346C6
:1010C8003960FB80B7F90630002B0ADB0D49B7F908
:1010D80006303A68D2B21201D2B20B4483F8002328
:1010E8000AE00949FB8803F00F03043B3A68D2B2CF
:1010F8001201D2B20B441A7600BF0C37BD465DF818
:10110800047B704700E100E000ED00E080B489B0A6
:1011180000AFF860B9607A60FB6803F00703FB6111
:10112800FB69C3F10703042B28BF0423BB61FB69D8
:101138000433062B02D9FB69033B00E000237B61E3
:101148000122BB6902FA03F35A1EBB681A407B6985
:101158009A4001217B6901FA03F3591E7B680B4011
:10116800134318462437BD465DF8047B70470000DA
:1011780080B582B000AF78607B68013BB3F1807FB7
:1011880001D301230FE00A4A7B68013B53600F211A
:101198004FF0FF30FFF790FF054B00229A60044B99
:1011A80007221A60002318460837BD4680BD00BFD5
:1011B80010E000E080B582B000AF78607868FFF793
:1011C80049FF00BF0837BD4680BD80B586B000AF77
:1011D8000346B9607A60FB81FFF760FF78617A683F
:1011E800B9687869FFF792FF0246B7F90E301146E1
:1011F8001846FFF761FF00BF1837BD4680BD80B5B0
:1012080082B000AF78607868FFF7B2FF03461846EF
:101218000837BD4680BD000080B489B000AF786053
:1012280039600023FB61894B7B6194E13B681A6854
:101238000121FB6901FA03F313403B613B69002B71
:1012480000F086813B685B68012B0BD03B685B68CC
:10125800022B07D03B685B68112B03D03B685B68A7
:10126800122B30D17B689B68BB61FB695B00032252
:1012780002FA03F3DB43BA691340BB613B68DA68DF
:10128800FB695B0002FA03F3BA691343BB617B682D
:10129800BA699A607B685B68BB610122FB6902FAE4
:1012A80003F3DB43BA691340BB613B685B681B0906
:1012B80003F00102FB6902FA03F3BA691343BB6145
:1012C8007B68BA695A607B68DB68BB61FB695B0055
:1012D800032202FA03F3DB43BA691340BB613B689C
:1012E8009A68FB695B0002FA03F3BA691343BB61AE
:1012F8007B68BA69DA603B685B68022B03D03B689D
:101308005B68122B23D1FB69DA087B68083253F833
:101318002230BB61FB6903F007039B000F2202FA2E
:1013280003F3DB43BA691340BB613B681A69FB6985
:1013380003F007039B0002FA03F3BA691343BB6186
:10134800FB69DA087B680832B96943F822107B68C0
:101358001B68BB61FB695B00032202FA03F3DB43F2
:10136800BA691340BB613B685B6803F00302FB6921
:101378005B0002FA03F3BA691343BB617B68BA697D
:101388001A603B685B6803F08053002B00F0E08034
:101398002F4A2F4BD3F8F43043F00203C2F8F4304D
:1013A8002B4BD3F8F43003F00203FB60FB68294AA7
:1013B800FB699B08023352F82330BB61FB6903F0D9
:1013C80003039B000F2202FA03F3DB43BA691340BD
:1013D800BB617B68204A934252D07B681F4A934284
:1013E80031D07B681E4A93422BD07B681D4A9342BA
:1013F80025D07B681C4A93421FD07B681B4A9342C6
:1014080019D07B681A4A934213D07B68194A9342D1
:101418000DD07B68184A934207D07B68174A9342DD
:1014280001D109232DE00A232BE0082329E0072313
:1014380027E0062325E0052323E0042321E00323F6
:101448001FE002231DE001231BE000BF80000058BD
:1014580000440258000400580000025800040258D2
:1014680000080258000C02580010025800140258D4
:1014780000180258001C0258002002580024025884
:101488000023FA6902F0030292009340BA691343F9
:10149800BB613849FB699B080233BA6941F82320CC
:1014A8007B691B68BB613B69DB43BA691340BB615D
:1014B8003B685B6803F48033002B03D0BA693B694F
:1014C8001343BB617B69BA691A607B695B68BB615E
:1014D8003B69DB43BA691340BB613B685B6803F453
:1014E8000033002B03D0BA693B691343BB617B69A6
:1014F800BA695A604FF0B0431B68BB613B69DB4374
:10150800BA691340BB613B685B6803F48013002B26
:1015180003D0BA693B691343BB614FF0B042BB6962
:1015280013604FF0B0435B68BB613B69DB43BA694A
:101538001340BB613B685B6803F40013002B03D0C6
:10154800BA693B691343BB614FF0B042BB69536052
:10155800FB690133FB613B681A68FB6922FA03F3F4
:10156800002B7FF463AE00BF2437BD465DF8047BD3
:10157800704700BF0004005880B483B000AF7860A3
:101588000B467B8013467B707B78002B03D07A88D0
:101598007B689A6103E07B881A047B689A6100BFC4
:1015A8000C37BD465DF8047B7047000080B584B0F9
:1015B80000AF7860194BDB6803F00403042B0AD0F2
:1015C800164BDB6803F007027B689A4201D00123BF
:1015D8001FE000231DE01149104BDB6823F00702D0
:1015E8007B681343CB60FFF7FBFCF86009E0FFF76B
:1015F800F7FC0246FB68D31AB3F57A7F01D90123B9
:1016080007E0064B5B6803F40053B3F5005FEED1C7
:10161800002318461037BD4680BD00BF0048025859
:1016280080B58CB000AF78607B68002B01D10123B6
:10163800FFE37B681B6803F00103002B00F0878041
:10164800994B1B6903F03803FB62974B9B6ABB629B
:10165800FB6A102B07D0FB6A182B10D1BB6A03F06A
:101668000303022B0BD1904B1B6803F40033002BB0
:101678006CD07B685B68002B68D10123D9E37B6859
:101688005B68B3F5803F06D1874A874B1B6843F4F4
:10169800803313602EE07B685B68002B0CD1824A94
:1016A800814B1B6823F4803313607F4A7E4B1B6891
:1016B80023F4802313601DE07B685B68B3F5A02FDB
:1016C8000CD1794A784B1B6843F480231360764A1F
:1016D800754B1B6843F4803313600BE0724A724BFE
:1016E8001B6823F4803313606F4A6F4B1B6823F425
:1016F800802313607B685B68002B13D0FFF770FCB6
:10170800786208E0FFF76CFC02467B6AD31A642B08
:1017180001D903238DE3644B1B6803F40033002BCA
:10172800F0D014E0FFF75CFC786208E0FFF758FCA3
:1017380002467B6AD31A642B01D9032379E35A4BF7
:101748001B6803F40033002BF0D100E000BF7B6876
:101758001B6803F00203002B00F0AE80524B1B699C
:1017680003F038033B62504B9B6AFB613B6A002BDA
:1017780007D03B6A182B3AD1FB6903F00303002B0F
:1017880035D1494B1B6803F00403002B05D07B6857
:10179800DB68002B01D101234BE3FFF74FFC024626
:1017A80041F203039A4217D87B681B69402B08D182
:1017B8003D4A3D4B5B6823F47C3343F4003353606C
:1017C8007AE03949384B5B6823F47C327B681B69C3
:1017D8001B0313434B606FE03349334B5B6823F0C3
:1017E800FE427B681B691B0613434B6064E07B6801
:1017F800DB68002B45D02C492B4B1B6823F01902C2
:101808007B68DB6813430B60FFF7EAFB786208E04C
:10181800FFF7E6FB02467B6AD31A022B01D90323A2
:1018280007E3214B1B6803F00403002BF0D0FFF7FC
:1018380005FC024641F203039A4217D87B681B69EC
:10184800402B08D1184A184B5B6823F47C3343F4C7
:101858000033536030E01449134B5B6823F47C3247
:101868007B681B691B0313434B6025E00E490E4B35
:101878005B6823F0FE427B681B691B0613434B60C1
:101888001AE0094A084B1B6823F001031360FFF7AD
:10189800A7FB78620AE0FFF7A3FB02467B6AD31A2C
:1018A800022B03D90323C4E200440258A44B1B684B
:1018B80003F00403002BEED17B681B6803F01003D0
:1018C800002B00F0A9809E4B1B6903F03803BB6115
:1018D8009B4B9B6A7B61BB69082B07D0BB69182BA4
:1018E8003AD17B6903F00303012B35D1944B1B6874
:1018F80003F48073002B05D07B68DB69802B01D053
:10190800012396E2FFF79AFB024641F203039A424B
:1019180017D87B681B6A202B08D1894A884B5B68DB
:1019280023F0F84343F08043536075E08449844BC7
:101938005B6823F0F8427B681B6A9B0613434B6085
:101948006AE07F497E4BDB6823F07C527B681B6A28
:101958001B061343CB605FE07B68DB69002B42D03A
:10196800774A774B1B6843F080031360FFF738FB17
:10197800786208E0FFF734FB02467B6AD31A022B31
:1019880001D9032355E26E4B1B6803F48073002BC7
:10199800F0D0FFF753FB024641F203039A4217D8EF
:1019A8007B681B6A202B08D1654A654B5B6823F06E
:1019B800F84343F0804353602EE06149604B5B6815
:1019C80023F0F8427B681B6A9B0613434B6023E0B5
:1019D8005B495B4BDB6823F07C527B681B6A1B0608
:1019E8001343CB6018E0564A554B1B6823F080031D
:1019F8001360FFF7F5FA786208E0FFF7F1FA02469C
:101A08007B6AD31A022B01D9032312E24C4B1B68C1
:101A180003F48073002BF0D17B681B6803F0080384
:101A2800002B36D07B685B69002B19D0444A444BA5
:101A38005B6F43F001035367FFF7D2FA786208E05F
:101A4800FFF7CEFA02467B6AD31A022B01D9032389
:101A5800EFE13B4B5B6F03F00203002BF0D018E083
:101A6800374A374B5B6F23F001035367FFF7B8FA28
:101A7800786208E0FFF7B4FA02467B6AD31A022BB1
:101A880001D90323D5E12E4B5B6F03F00203002B32
:101A9800F0D17B681B6803F02003002B36D07B68ED
:101AA8009B69002B19D0264A254B1B6843F48053A9
:101AB8001360FFF795FA786208E0FFF791FA02469B
:101AC8007B6AD31A022B01D90323B2E11C4B1B6892
:101AD80003F40053002BF0D018E0194A184B1B6888
:101AE80023F480531360FFF77BFA786208E0FFF76E
:101AF80077FA02467B6AD31A022B01D9032398E1AD
:101B08000F4B1B6803F40053002BF0D17B681B6854
:101B180003F00403002B00F085800A4A094B1B6878
:101B280043F480731360FFF75BFA78620CE0FFF709
:101B380057FA02467B6AD31A642B05D9032378E146
:101B48000044025800480258964B1B6803F48073FF
:101B5800002BECD07B689B68012B06D1924A924BF4
:101B68001B6F43F0010313672DE07B689B68002B14
:101B78000CD18D4A8C4B1B6F23F0010313678A4AE3
:101B8800894B1B6F23F0040313671CE07B689B6879
:101B9800052B0CD1844A844B1B6F43F00403136755
:101BA800814A814B1B6F43F0010313670BE07E4AA8
:101BB8007D4B1B6F23F0010313677B4A7A4B1B6F26
:101BC80023F0040313677B689B68002B15D0FFF78D
:101BD80007FA78620AE0FFF703FA02467B6AD31A2B
:101BE80041F28832934201D9032322E16E4B1B6FE5
:101BF80003F00203002BEED014E0FFF7F1F978624E
:101C08000AE0FFF7EDF902467B6AD31A41F28832FF
:101C1800934201D903230CE1634B1B6F03F00203CA
:101C2800002BEED17B685B6A002B00F001815E4BD4
:101C38001B6903F03803182B00F0BC807B685B6AD3
:101C4800022B40F09580584A574B1B6823F080734D
:101C58001360FFF7C5F9786208E0FFF7C1F902469B
:101C68007B6AD31A022B01D90323E2E04E4B1B688F
:101C780003F00073002BF0D14B484B4B9A6A4B4B47
:101C880013407A68916A7A68D26A12010A43134348
:101C9800836245497B681B6B013BC3F308027B6881
:101CA8005B6B013B5B029BB21A437B689B6B013BFE
:101CB8001B0403F4FE031A437B68DB6B013B1B0622
:101CC80003F0FE4313430B63374A374BDB6A23F0B9
:101CD8000103D3623449344B5A6B354B13407A684D
:101CE800926CD20013434B632F492F4BDB6A23F0CE
:101CF8000C027B681B6C1343CB622B492A4BDB6AB3
:101D080023F002027B685B6C1343CB62264A264BA6
:101D1800DB6A43F48033D362234A234BDB6A43F400
:101D28000033D362204A204BDB6A43F48023D3621A
:101D38001D4A1D4BDB6A43F00103D3621A4A1A4B52
:101D48001B6843F080731360FFF74AF9786208E074
:101D5800FFF746F902467B6AD31A022B01D90323FF
:101D680067E0114B1B6803F00073002BF0D05FE0B5
:101D78000D4A0D4B1B6823F080731360FFF730F991
:101D8800786208E0FFF72CF902467B6AD31A022B27
:101D980001D903234DE0044B1B6803F00073002BAB
:101DA800F0D145E000480258004402580CFCFFFFFF
:101DB8000700FFFF214B9B6A3B61204B1B6BFB60BD
:101DC8007B685B6A012B31D03B6903F003027B68B7
:101DD8009B6A9A422AD13B691B0903F03F027B6840
:101DE800DB6A9A4222D1FB68C3F308027B681B6B4B
:101DF800013B9A421AD1FB685B0A03F07F027B68B9
:101E08005B6B013B9A4211D1FB681B0C03F07F020C
:101E18007B689B6B013B9A4208D1FB681B0E03F061
:101E28007F027B68DB6B013B9A4201D0012300E013
:101E3800002318463037BD4680BD00BF0044025815
:101E480080B586B000AF786039607B68002B01D11F
:101E580001239CE18A4B1B6803F00F023B689A42FE
:101E680010D28749864B1B6823F00F023B68134347
:101E78000B60834B1B6803F00F023B689A4201D04A
:101E8800012384E17B681B6803F00403002B10D056
:101E98007B681A697B4B9B6903F070039A4208D9E7
:101EA8007849784B9B6923F070027B681B69134360
:101EB8008B617B681B6803F00803002B10D07B68DC
:101EC8005A69704BDB6903F070039A4208D96D496F
:101ED8006C4BDB6923F070027B685B691343CB6151
:101EE8007B681B6803F01003002B10D07B689A698D
:101EF800644BDB6903F4E0639A4208D96149614B9A
:101F0800DB6923F4E0627B689B691343CB617B68E0
:101F18001B6803F02003002B10D07B68DA69594B4B
:101F28001B6A03F070039A4208D95649554B1B6A3D
:101F380023F070027B68DB6913430B627B681B68C4
:101F480003F00203002B10D07B68DA684D4B9B69C5
:101F580003F00F039A4208D94A494A4B9B6923F078
:101F68000F027B68DB6813438B617B681B6803F097
:101F78000103002B55D04349424B9B6923F47062FF
:101F88007B689B6813438B617B685B68022B07D176
:101F98003C4B1B6803F40033002B21D10123F6E0EE
:101FA8007B685B68032B07D1364B1B6803F0007313
:101FB800002B15D10123EAE07B685B68012B07D170
:101FC800304B1B6803F48073002B09D10123DEE03A
:101FD8002C4B1B6803F00403002B01D10123D6E02E
:101FE8002849284B1B6923F007027B685B68134369
:101FF8000B61FEF7F5FF78610AE0FEF7F1FF024694
:102008007B69D31A41F28832934201D90323BEE097
:102018001C4B1B6903F038027B685B68DB009A4243
:10202800EBD17B681B6803F00203002B10D07B68A0
:10203800DA68144B9B6903F00F039A4208D21149DE
:10204800104B9B6923F00F027B68DB6813438B619D
:102058000B4B1B6803F00F023B689A4214D90849DE
:10206800074B1B6823F00F023B6813430B60044BBC
:102078001B6803F00F023B689A4205D0012386E0F3
:1020880000200052004402587B681B6803F00403D8
:10209800002B10D07B681A693F4B9B6903F07003D3
:1020A8009A4208D23C493C4B9B6923F070027B68FA
:1020B8001B6913438B617B681B6803F00803002BC3
:1020C80010D07B685A69344BDB6903F070039A427D
:1020D80008D23149304BDB6923F070027B685B69B9
:1020E8001343CB617B681B6803F01003002B10D0EF
:1020F8007B689A69284BDB6903F4E0639A4208D24B
:102108002549254BDB6923F4E0627B689B6913430F
:10211800CB617B681B6803F02003002B10D07B6821
:10212800DA691D4B1B6A03F070039A4208D21A49F8
:10213800194B1B6A23F070027B68DB6913430B623F
:1021480000F034F80146144B9B691B0A03F00F0397
:10215800124AD35C03F01F0321FA03F33B610E4BD1
:102168009B6903F00F030D4AD35C03F01F033A6920
:1021780022FA03F30A4A13600A4A3B6913600A4BBE
:102188001B681846FEF7E2FE0346FB73FB7B184606
:102198001837BD4680BD00BF00440258283C0008DF
:1021A80004000020000000200800002080B489B04E
:1021B80000AFAF4B1B6903F03803182B00F24E81B8
:1021C80001A252F823F000BF352200086524000858
:1021D80065240008652400086524000865240008B3
:1021E80065240008652400085B22000865240008AF
:1021F8006524000865240008652400086524000893
:102208006524000865240008612200086524000888
:102218006524000865240008652400086524000872
:10222800652400086524000867220008904B1B6895
:1022380003F02003002B09D08D4B1B68DB0803F04B
:1022480003038C4A22FA03F3BB610AE1894BBB61A1
:1022580007E1894BBB6104E1884BBB6101E1844B19
:102268009B6A03F003037B61814B9B6A1B0903F0A4
:102278003F033B617E4BDB6A03F00103FB607C4B51
:102288005B6BDB08C3F30C03FA6802FB03F307EE8E
:10229800903AF8EE677AC7ED027A3B69002B00F0B6
:1022A800DA807B69012B5AD0012B02D3022B78D01C
:1022B80099E06F4B1B6803F02003002B2DD06C4B6B
:1022C8001B68DB0803F003036A4A22FA03F37B6006
:1022D8007B6807EE903AF8EE676A3B6907EE903A3A
:1022E800F8EE677A86EEA77A614B1B6BC3F3080397
:1022F80007EE903AF8EE676A97ED026ADFED605AEA
:10230800C6EE257A76EEA77AF7EE006A77EEA67A19
:1023180067EE277AC7ED077A87E03B6907EE903AC0
:10232800F8EE677ADFED576A86EEA77A504B1B6B9B
:10233800C3F3080307EE903AF8EE676A97ED026A6E
:10234800DFED4F5AC6EE257A76EEA77AF7EE006AE9
:1023580077EEA67A67EE277AC7ED077A65E03B69DC
:1023680007EE903AF8EE677ADFED476A86EEA77ACD
:102378003F4B1B6BC3F3080307EE903AF8EE676A0E
:1023880097ED026ADFED3E5AC6EE257A76EEA77A19
:10239800F7EE006A77EEA67A67EE277AC7ED077A36
:1023A80043E03B6907EE903AF8EE677ADFED376A6B
:1023B80086EEA77A2E4B1B6BC3F3080307EE903A01
:1023C800F8EE676A97ED026ADFED2D5AC6EE257AB8
:1023D80076EEA77AF7EE006A77EEA67A67EE277AA6
:1023E800C7ED077A21E03B6907EE903AF8EE677A85
:1023F800DFED256A86EEA77A1D4B1B6BC3F3080336
:1024080007EE903AF8EE676A97ED026ADFED1C5A1C
:10241800C6EE257A76EEA77AF7EE006A77EEA67A08
:1024280067EE277AC7ED077A00BF114B1B6B5B0A73
:1024380003F07F0301333B603B6807EE903AB8EE48
:10244800677AD7ED076AC6EE877AFCEEE77A17EE69
:10245800903ABB6105E00023BB6102E0064BBB611B
:1024680000BFBB6918462437BD465DF8047B70473A
:10247800004402580090D00300093D0000366E0168
:10248800000000460024744C0024744A001BB74B1B
:1024980080B586B000AF78600023FB750023BB755C
:1024A8007B681B6803F00063002B3DD07B685B6E84
:1024B800B3F5801F13D0B3F5801F02D8002B07D0C7
:1024C8001FE0B3F5001F13D0B3F5401F1CD018E070
:1024D800AF4AAF4BDB6A43F40033D36215E07B6845
:1024E80004330221184600F0D1FE0346FB750CE0C8
:1024F8007B6824330221184600F07AFF0346FB75F7
:1025080003E00123FB7500E000BFFB7D002B09D130
:102518009F499F4B1B6D23F440127B685B6E1343EE
:102528000B6501E0FB7DBB757B681B6803F480735A
:10253800002B3DD07B685B6D042B26D801A252F896
:1025480023F000BF612500086F25000881250008D9
:1025580099250008992500088D4A8D4BDB6A43F4BC
:102568000033D36215E07B6804330021184600F07D
:102578008DFE0346FB750CE07B682433002118466A
:1025880000F036FF0346FB7503E00123FB7500E00E
:1025980000BFFB7D002B09D17D497D4B1B6D23F0CE
:1025A80007027B685B6D13430B6501E0FB7DBB7520
:1025B8007B681B6803F40073002B3ED07B689B6D1F
:1025C800802B1CD0802B04D8002B08D0402B0DD09A
:1025D8001EE0C02B1FD0B3F5807F1ED018E06C4AD8
:1025E8006B4BDB6A43F40033D36217E07B68043338
:1025F8000021184600F04AFE0346FB750EE07B6892
:1026080024330021184600F0F3FE0346FB7505E06D
:102618000123FB7502E000BF00E000BFFB7D002B3B
:1026280009D15B495A4B1B6D23F4E0727B689B6DA3
:1026380013430B6501E0FB7DBB757B681B6803F4E6
:102648008063002B44D07B68D3F8A430B3F5800FA7
:102658001FD0B3F5800F05D8002B0AD0B3F5001FA3
:102668000ED01FE0B3F5C00F1FD0B3F5000F1ED07A
:1026780018E0474A464BDB6A43F40033D36217E05D
:102688007B6804330021184600F000FE0346FB7502
:102698000EE07B6824330021184600F0A9FE0346AB
:1026A800FB7505E00123FB7502E000BF00E000BFF9
:1026B800FB7D002B0AD13649354B9B6D23F4600214
:1026C8007B68D3F8A43013438B6501E0FB7DBB75B1
:1026D8007B681B6803F40063002B44D07B68D3F845
:1026E800A830B3F1007F1FD0B3F1007F05D8002BCD
:1026F8000AD0B3F1807F0ED01FE0B3F1407F1FD026
:10270800B3F1806F1ED018E0214A214BDB6A43F4F5
:102718000033D36217E07B6804330021184600F0C9
:10272800B5FD0346FB750EE07B682433002118468F
:1027380000F05EFE0346FB7505E00123FB7502E031
:1027480000BF00E000BFFB7D002B0AD11049104BF1
:102758009B6D23F0E0627B68D3F8A83013438B6548
:1027680001E0FB7DBB757B681B6803F00073002BE1
:1027780035D07B689B6C102B0CD0102B02D8002B0B
:102788001BD017E0202B0CD0302B18D012E000BF44
:1027980000440258AF4AAF4BDB6A43F40033D362BC
:1027A8000EE07B6804330221184600F06FFD0346F3
:1027B800FB7505E00123FB7502E000BF00E000BFE8
:1027C800FB7D002B09D1A349A24BDB6C23F030021F
:1027D8007B689B6C1343CB6401E0FB7DBB757B6816
:1027E8001B6803F48053002B42D07B68DB6DB3F584
:1027F800005F1FD0B3F5005F05D8002B0AD0B3F5F2
:10280800805F0ED01FE0B3F5405F1FD0B3F5804F57
:102818001ED018E08F4A8F4BDB6A43F40033D36233
:1028280017E07B6804330021184600F02FFD0346AB
:10283800FB750EE07B6824330021184600F0D8FDB4
:102848000346FB7505E00123FB7502E000BF00E0CD
:1028580000BFFB7D002B09D17E497E4B1B6D23F405
:10286800E0427B68DB6D13430B6501E0FB7DBB75C4
:102878007B681B6803F40053002B42D07B681B6EF7
:10288800B3F5003F1BD0B3F5003F05D8002B22D08D
:10289800B3F5803F0AD01BE0B3F5802F1DD0B3F508
:1028A800A02F1CD0B3F5403F1BD011E07B68043348
:1028B8000121184600F0EAFC0346FB7512E07B682C
:1028C80024330121184600F093FD0346FB7509E007
:1028D8000123FB7506E000BF04E000BF02E000BF73
:1028E80000E000BFFB7D002B09D15A49594B1B6DF5
:1028F80023F4E0227B681B6E13430B6501E0FB7D2C
:10290800BB757B681B6803F48043002B44D07B684D
:10291800D3F8AC30B3F1005F1BD0B3F1005F05D83A
:10292800002B22D0B3F1805F0AD01BE0B3F1804FB7
:102938001DD0B3F1A04F1CD0B3F1405F1BD011E004
:102948007B6804330121184600F0A0FC0346FB75A0
:1029580012E07B6824330121184600F049FD034644
:10296800FB7509E00123FB7506E000BF04E000BF2A
:1029780002E000BF00E000BFFB7D002B0AD1354913
:10298800344B9B6D23F0E0427B68D3F8AC301343A3
:102998008B6501E0FB7DBB757B681B6803F4004316
:1029A800002B2DD07B68DB6EB3F1805F05D0B3F1CF
:1029B800005F09D0002B13D00FE0264A254BDB6AB5
:1029C80043F40033D3620CE07B68043301211846DA
:1029D80000F05CFC0346FB7503E00123FB7500E097
:1029E80000BFFB7D002B09D11A491A4B1B6D23F040
:1029F80040527B68DB6E13430B6501E0FB7DBB75C2
:102A08007B681B6803F08073002B35D07B685B6C98
:102A1800032B1BD801A252F823F000BF612A00083B
:102A2800352A0008432A0008612A0008094A094B88
:102A3800DB6A43F40033D3620FE07B68043302217E
:102A4800184600F023FC0346FB7506E00123FB75DE
:102A580003E000BF0044025800BFFB7D002B09D1F2
:102A6800BA49BA4BDB6C23F003027B685B6C1343F7
:102A7800CB6401E0FB7DBB757B681B6803F48003B6
:102A8800002B00F08680B24AB14B1B6843F4807378
:102A98001360FEF7A5FA386109E0FEF7A1FA0246CD
:102AA8003B69D31A642B02D90323FB7505E0A84BB5
:102AB8001B6803F48073002BEFD0FB7D002B66D1DD
:102AC800A24B1A6F7B68D3F8B030534003F44073BD
:102AD800002B13D09D4B1B6F23F44073FB609B4A64
:102AE8009A4B1B6F43F480331367984A974B1B6FBD
:102AF80023F480331367954AFB6813677B68D3F820
:102B0800B030B3F5807F15D1FEF76AFA38610BE073
:102B1800FEF766FA02463B69D31A41F288329342BD
:102B280002D90323FB7505E0884B1B6F03F00203F2
:102B3800002BEDD0FB7D002B26D17B68D3F8B0307D
:102B480003F44073B3F5407F0DD180487F4B1B6978
:102B580023F47C527B68D3F8B03019097D4B0B40C5
:102B68001343036105E0794A784B1B6923F47C53CE
:102B780013617649754B1A6F7B68D3F8B030C3F38D
:102B88000B0313430B6704E0FB7DBB7501E0FB7D82
:102B9800BB757B681B6803F00103002B7DD07B6845
:102BA8009B6F282B66D801A252F823F0832C0008CB
:102BB8007D2C00087D2C00087D2C00087D2C000849
:102BC8007D2C00087D2C00087D2C0008592C00085D
:102BD8007D2C00087D2C00087D2C00087D2C000829
:102BE8007D2C00087D2C00087D2C00086B2C00082B
:102BF8007D2C00087D2C00087D2C00087D2C000809
:102C08007D2C00087D2C00087D2C0008832C0008F2
:102C18007D2C00087D2C00087D2C00087D2C0008E8
:102C28007D2C00087D2C00087D2C0008832C0008D2
:102C38007D2C00087D2C00087D2C00087D2C0008C8
:102C48007D2C00087D2C00087D2C0008832C0008B2
:102C58007B6804330121184600F018FB0346FB7516
:102C68000CE07B6824330121184600F0C1FB0346C1
:102C7800FB7503E00123FB7500E000BFFB7D002B23
:102C880009D13249314B5B6D23F038027B689B6F69
:102C980013434B6501E0FB7DBB757B681B6803F044
:102CA8000203002B37D07B685B6F052B20D801A26D
:102CB80052F823F0FF2C0008D52C0008E72C000858
:102CC800FF2C0008FF2C0008FF2C00087B68043349
:102CD8000121184600F0DAFA0346FB750CE07B6820
:102CE80024330121184600F083FB0346FB7503E0FB
:102CF8000123FB7500E000BFFB7D002B09D11349C0
:102D0800124B5B6D23F007027B685B6F13434B65C7
:102D180001E0FB7DBB757B681B6803F00403002B97
:102D280040D07B68D3F89030052B27D801A252F801
:102D380023F000BF8B2D0008612D0008732D0008BB
:102D48008B2D00088B2D00088B2D0008004402589D
:102D580000480258CFFFFF007B6804330121184662
:102D680000F094FA0346FB750CE07B6824330121DC
:102D7800184600F03DFB0346FB7503E00123FB7595
:102D880000E000BFFB7D002B0AD1B249B14B9B6D1F
:102D980023F007027B68D3F8903013438B6501E07A
:102DA800FB7DBB757B681B6803F02003002B44D0B8
:102DB8007B68D3F88C30B3F1005F1BD0B3F1005FB0
:102DC80005D8002B22D0B3F1805F0AD01BE0B3F105
:102DD800804F1DD0B3F1A04F1CD0B3F1405F1BD082
:102DE80011E07B6804330021184600F04FFA0346CF
:102DF800FB7512E07B6824330221184600F0F8FACC
:102E08000346FB7509E00123FB7506E000BF04E0FB
:102E180000BF02E000BF00E000BFFB7D002B0AD12D
:102E28008C498C4B5B6D23F0E0427B68D3F88C3087
:102E380013434B6501E0FB7DBB757B681B6803F0A2
:102E48004003002B44D07B68D3F89830B3F5006F6B
:102E58001BD0B3F5006F05D8002B22D0B3F5806FD7
:102E68000AD01BE0B3F5805F1DD0B3F5A05F1CD07E
:102E7800B3F5406F1BD011E07B680433002118467E
:102E880000F004FA0346FB7512E07B682433022144
:102E9800184600F0ADFA0346FB7509E00123FB75FF
:102EA80006E000BF04E000BF02E000BF00E000BF92
:102EB800FB7D002B0AD16749664B9B6D23F4E052DA
:102EC8007B68D3F8983013438B6501E0FB7DBB75B5
:102ED8007B681B6803F08003002B44D07B68D3F821
:102EE8009C30B3F5804F1BD0B3F5804F05D8002B2D
:102EF80022D0B3F5005F0AD01BE0B3F5004F1DD018
:102F0800B3F5204F1CD0B3F5C04F1BD011E07B6840
:102F180004330021184600F0B9F90346FB7512E0A6
:102F28007B6824330221184600F062FA0346FB75D9
:102F380009E00123FB7506E000BF04E000BF02E0E2
:102F480000BF00E000BFFB7D002B0AD14149414B87
:102F58009B6D23F460427B68D3F89C3013438B65E8
:102F680001E0FB7DBB757B681B6803F00803002B41
:102F78001AD07B68D3F88030B3F5805F0AD17B68BC
:102F880024330221184600F033FA0346002B01D0FF
:102F98000123BB752F492F4B5B6D23F440527B688F
:102FA800D3F8803013434B657B681B6803F010032C
:102FB800002B1AD07B68D3F89430B3F5807F0AD100
:102FC8007B6824330221184600F012FA0346002BCE
:102FD80001D00123BB751F491E4B9B6D23F4407222
:102FE8007B68D3F8943013438B657B681B6803F4C4
:102FF8000023002B32D07B68D3F8A030B3F5803F94
:103008000DD0B3F5003F16D0002B11D17B680433E7
:103018000021184600F03AF90346FB750CE07B687E
:1030280024330221184600F0E3F90346FB7503E058
:103038000123FB7500E000BFFB7D002B0CD1054987
:10304800044B9B6D23F440327B68D3F8A0301343C4
:103058008B6503E000440258FB7DBB757B681B68E9
:1030680003F48023002B2FD07B68D3F88430B3F58A
:10307800001F0CD0B3F5401F15D0B3F5801F0FD13A
:10308800814A814BDB6A43F40033D3620CE07B68EE
:1030980024330121184600F0ABF90346FB7503E021
:1030A8000123FB7500E000BFFB7D002B0AD17649A8
:1030B800754B5B6D23F440127B68D3F8843013435F
:1030C8004B6501E0FB7DBB757B681B6803F48033AF
:1030D800002B29D07B68DB6C002B03D0B3F5803F35
:1030E80007D00FE0684A684BDB6A43F40033D362C9
:1030F8000BE07B6804330221184600F0C7F803464A
:10310800FB7502E00123FB7500BFFB7D002B09D195
:103118005D495D4BDB6C23F480327B68DB6C1343C9
:10312800CB6401E0FB7DBB757B681B6803F0005333
:10313800002B0AD07B6824330221184600F058F986
:103148000346002B01D00123BB757B681B6803F481
:103158000033002B2FD07B68DB6FB3F5807F0CD05A
:10316800B3F5807F02D8002B11D00DE0B3F5007FB6
:103178000FD0B3F5407F0ED006E0434A424BDB6ADE
:1031880043F40033D36207E00123FB7504E000BF7A
:1031980002E000BF00E000BFFB7D002B09D13A49E7
:1031A800394B5B6D23F440727B68DB6F13434B65CF
:1031B80001E0FB7DBB757B681B6803F48013002B63
:1031C80008D03149304B1B6D23F000427B681B6FE0
:1031D80013430B657B681B6803F08053002B09D0F1
:1031E8002949294B1B6923F480427B68D3F8B43002
:1031F80013430B617B681B6803F40013002B08D092
:103208002149214B1B6D23F080727B689B6E134311
:103218000B657B681B6803F08043002B0DD01A4AAE
:10322800194B1B6923F4004313611749164B1A699C
:103238007B68D3F8B83013430B617B681B68002B9D
:1032480008DA1149104BDB6C23F040527B681B6D88
:103258001343CB647B681B6803F40003002B09D07D
:103268000949094B5B6D23F440027B68D3F8883029
:1032780013434B65BB7D002B01D1002300E00123E4
:1032880018461837BD4680BD0044025880B584B042
:1032980000AF786039600023FB73534B9B6A03F0DF
:1032A8000303032B01D1012399E04F4A4E4B1B68BE
:1032B80023F080631360FDF793FEB86008E0FDF724
:1032C8008FFE0246BB68D31A022B01D9032386E07E
:1032D800454B1B6803F00063002BF0D14249424B79
:1032E8009B6A23F47C327B681B681B0313438B6245
:1032F8003D497B685B68013BC3F308027B689B68B8
:10330800013B5B029BB21A437B68DB68013B1B04F1
:1033180003F4FE031A437B681B69013B1B0603F099
:10332800FE4313438B6330492F4BDB6A23F0C00203
:103338007B685B691343CB622B492B4BDB6A23F019
:1033480020027B689B691343CB62274A264BDB6AC2
:1033580023F01003D3622449234BDA6B234B134029
:103368007A68D269D2001343CB631F4A1E4BDB6ACB
:1033780043F01003D3623B68002B06D11A4A1A4B5C
:10338800DB6A43F40023D3620FE03B68012B06D1CC
:10339800154A154BDB6A43F48013D36205E0124AE1
:1033A800114BDB6A43F40013D3620F4A0E4B1B68C0
:1033B80043F080631360FDF713FEB86008E0FDF783
:1033C8000FFE0246BB68D31A022B01D9032306E07D
:1033D800054B1B6803F00063002BF0D0FB7B1846FD
:1033E8001037BD4680BD00BF004402580700FFFFEC
:1033F80080B584B000AF786039600023FB73534B0D
:103408009B6A03F00303032B01D1012399E04F4A80
:103418004E4B1B6823F080531360FDF7E1FDB86045
:1034280008E0FDF7DDFD0246BB68D31A022B01D97F
:10343800032386E0454B1B6803F00053002BF0D1B3
:103448004249424B9B6A23F07C727B681B681B05D0
:1034580013438B623D497B685B68013BC3F30802F9
:103468007B689B68013B5B029BB21A437B68DB6805
:10347800013B1B0403F4FE031A437B681B69013BF1
:103488001B0603F0FE4313430B6430492F4BDB6AE2
:1034980023F440627B685B691343CB622B492B4B57
:1034A800DB6A23F400727B689B691343CB62274A6B
:1034B800264BDB6A23F48073D3622449234B5A6C6E
:1034C800234B13407A68D269D20013434B641F4AD6
:1034D8001E4BDB6A43F48073D3623B68002B06D132
:1034E8001A4A1A4BDB6A43F48003D3620FE03B6845
:1034F800012B06D1154A154BDB6A43F40003D3624E
:1035080005E0124A114BDB6A43F08073D3620F4A1D
:103518000E4B1B6843F080531360FDF761FDB860E4
:1035280008E0FDF75DFD0246BB68D31A022B01D9FE
:10353800032306E0054B1B6803F00053002BF0D073
:10354800FB7B18461037BD4680BD00BF00440258BB
:103558000700FFFF80B582B000AF786039607B68F4
:10356800002B01D101232BE07B6893F82C30DBB2D0
:10357800002B06D17B68002283F82D207868FDF7A0
:10358800CDF87B68022283F82C207B681A687B6858
:1035980004331946104600F0DFF97B6818687B6829
:1035A8005B681A46396800F033FA074A064B1B680D
:1035B80043F0004313607B68012283F82C2000232A
:1035C80018460837BD4680BD0040005280B586B019
:1035D80000AFF860B9607A60FB6893F82C30FB752F
:1035E800FB7D022B01D1022321E0FB7D012B02D0C0
:1035F800FB7D052B18D1FB68022283F82C20FB6881
:103608001B687A68B968184600F06CFABB681B68D2
:10361800022B04D1FB68052283F82C2006E0FB6806
:10362800012283F82C2001E0012300E00023184642
:103638001837BD4680BD80B582B000AF786039606C
:103648007B6893F82C30DBB2022B01D1022316E001
:103658007B6893F82C30DBB2012B0FD17B680222F8
:1036680083F82C207B681B683968184600F05EFADE
:103678007B68012283F82C20002300E001231846F0
:103688000837BD4680BD000080B584B000AFF86043
:10369800B9607A60FB68002B01D101233EE0FB682A
:1036A80093F84530DBB2002B06D1FB68002283F883
:1036B8004420F868FDF728F8FB681A68FB680833A7
:1036C8001946104600F030F8FB681868FB689B68DC
:1036D8001A46B96800F0B8F8FB685868FB689A6839
:1036E800FB68DB6A796800F0FFF8FB681B68FA681A
:1036F8009268F9680968F868806851F8201041F004
:10370800010143F82210074A064B1B6843F00043A7
:103718001360FB68012283F8452000231846103700
:10372800BD4680BD0040005280B487B000AF7860CD
:1037380039603B681A683B6819687B6853F8213020
:1037480023F001017B6843F822103B689B68082B33
:1037580002D140237B6101E000237B613B685A680A
:103768007B691A433B689B681A433B68DB681A43CA
:103778003B681B691A433B685B691A433B689B6952
:103788001A433B68DB691A433B681B6A1A433B6868
:103798005B6A1A433B689B6A1A433B68DB6A1343BC
:1037A8003B613B681B6B3A6913433B613B685B6B4E
:1037B8003A6913433B613B689B6B3A6913433B612E
:1037C800204BFB60FB6843F48013FB60FB6843F409
:1037D8000013FB60FB6843F4E023FB603B681A6856
:1037E8003B6819687B6853F82110FB68DB43194074
:1037F8003B6919437B6843F822103B681B6BB3F5A0
:10380800801F0CD13B681B68002B08D07B681B68A5
:1038180023F480123B681B6B1A437B681A603B6871
:103828001B68002B06D07B681A683B685B6B1A43E1
:103838007B681A60002318461C37BD465DF8047B78
:10384800704700BF7FFB080080B487B000AFF86006
:10385800B9607A607B685A1C7B68591CFB6853F80E
:10386800213003F04041BB681868BB685B681B01E6
:103878001843BB689B681B021843BB68DB681B04C2
:103888001843BB681B69013B1B051843BB685B6990
:10389800023B1B061843BB689B6903431943FB683B
:1038A80043F82210FB681B6803F48013B3F5801FEC
:1038B80013D1FB685B6823F470037B61BB681B69E9
:1038C800013B1B057A6913437B61FB685B6823F442
:1038D80070027B691A43FB685A60002318461C373C
:1038E800BD465DF8047B704780B485B000AFF860D2
:1038F800B9607A603B603B68B3F5804F1DD1FB68C7
:103908007A6853F82220134B1340BA681168BA68D2
:10391800526812011143BA68926812021143BA68D8
:1039280092691143BA68D26812040A4343EA020151
:10393800FB687A6843F8221005E0FB687A686FF044
:10394800704143F82210002318461437BD465DF82D
:10395800047B70470000F0CF80B483B000AF78607C
:1039680039603B681B68002B21D17B681A68274B9C
:1039780013403A6851683A68926811433A68D268C5
:1039880011433A68126911433A68526911433A6817
:10399800926911433A68D26911433A68126A11432D
:1039A8003A68526A0A431A437B681A6026E07B68C1
:1039B8001B6823F4F8423B68D9693B681B6A1943C2
:1039C8003B685B6A0B431A437B681A607B685A68DA
:1039D8000E4B13403A6851683A68926811433A6846
:1039E800D26811433A68126911433A68526911431F
:1039F8003A6892690A431A437B685A60002318465A
:103A08000C37BD465DF8047B704700BF0080FFFFA0
:103A180080B485B000AFF860B9607A607B68002B2D
:103A280028D1FB689B6803F07042BB681B68591E6D
:103A3800BB685B68013B1B011943BB689B68013B82
:103A48001B021943BB68DB68013B1B031943BB68B6
:103A58001B69013B1B041943BB685B69013B1B05E0
:103A68001943BB689B69013B1B060B431A43FB6860
:103A78009A602DE0FB689A68194B1340BA68D268BF
:103A8800013A1103BA685269013A12050A431A4306
:103A9800FB689A60FB68DB6803F07042BB681B68D0
:103AA800591EBB685B68013B1B011943BB689B68D7
:103AB800013B1B021943BB681B69013B1B041943EB
:103AC800BB689B69013B1B060B431A43FB68DA6022
:103AD800002318461437BD465DF8047B704700BFC5
:103AE800FF0F0FFF80B485B000AFF860B9607A604F
:103AF800FB681A690C4B1340BA681168BA685268B7
:103B08001143BA689268013A52011143BA68D268FF
:103B180052020A431A43FB681A61002318461437F5
:103B2800BD465DF8047B70470000C0FF80B483B0D9
:103B380000AF786039607B685A69074B13403A6870
:103B480052001A437B685A61002318460C37BD4659
:103B58005DF8047B704700BF01C0FFFFDFF834D079
:103B6800FDF72CF90C480D490D4A002302E0D45802
:103B7800C4500433C4188C42F9D30A4A0A4C0023AF
:103B880001E013600432A242FBD300F011F8FCF705
:103B9800BBFF70470000022000000020100000203A
:103BA800403C000810000020D8040020FEE7000078
:103BB80070B50D4E0D4CA41BA4100025A54209D1CB
:103BC8000B4E0C4C00F020F8A41BA4100025A542B5
:103BD80005D170BD56F8253098470135EEE756F8FF
:103BE800253098470135F2E7383C0008383C000892
:103BF800383C00083C3C000802440346934200D18C
:103C0800704703F8011BF9E7F8B500BFF8BC08BC1A
:103C18009E467047F8B500BFF8BC08BC9E46704782
:103C2800000000000102030401020304060708095A
:043C3800BD020008C1
:043C3C0099020008E1
:103C40000090D0030090D00310000000010000009D
:0400000508003B654F
:00000001FF
